:020000040800F2
:10000000C00C0020D500000851190008E90C0008B8
:1000100000000000000000000000000000000000E0
:10002000000000000000000000000000951D000816
:100030000000000000000000911D0008971D00084E
:10004000E7000008E7000008E7000008E7000008F4
:10005000931D0008E7000008E7000008E70000081B
:10006000E7000008E7000008E7000008E7000008D4
:10007000E7000008E700000800000000E7000008B3
:1000800000000000E7000008000000000000000081
:10009000E700000800000000E7000008E700000893
:1000A000E7000008E7000008E7000008E700000894
:1000B000E7000008E700000800000000393F0008E2
:1000C0000348854600F04EF80048004759400008B4
:1000D000C00C00200448804704480047FEE7FEE7C4
:1000E000FEE7FEE7FEE7FEE70D200008C10000087E
:1000F00030B50B46014600202022012409E00D46C0
:10010000D5409D4205D31D469540491B2546954047
:1001100040191546521E002DF1DC30BD03460B433D
:100120009B0703D009E008C9121F08C0042AFAD2AD
:1001300003E00B780370401C491C521EF9D2704733
:10014000D2B201E00270401C491EFBD2704700226F
:10015000F6E710B513460A4604461946FFF7F0FFC6
:10016000204610BD064C0125064E05E0E36807CC8D
:100170002B430C3C98471034B442F7D3FFF7A4FF4D
:100180008C400008AC40000870B58C180578401C05
:100190006B075B0F01D10378401C2A1106D102784E
:1001A000401C03E006780E70401C491C5B1EF9D110
:1001B0002B0705D40023521E0DD40B70491CFAE7FF
:1001C0000378401CCB1A921C03E01D780D70491C6B
:1001D0005B1C521EF9D5A142D8D3002070BD00008F
:1001E00070B505460C46002D20D0002C1ED0062CE4
:1001F0001CD20F48806B0121090708430C49886312
:1002000000F03CFD002006E081000A4A8918096DD3
:100210008200A950401CA042F6D300F025FD0448FE
:10022000806B0121090788430149886370BD000084
:10023000001002400028004010B50446012120466D
:10024000FFF7CEFF10BD704730B504460D460022C3
:100250002946204600F002F830BD0000F0B5034604
:10026000012500241148407A01281CDA00200F4E95
:10027000767A0E4FB8553846407A8600381D83513D
:10028000001F467A083082553E46707A461C7E72C0
:1002900004462046303008703A2048702F2088707D
:1002A0000020C87000252846F0BD0000B0080020DE
:1002B00070B50948046945698669A419002C0AD0FB
:1002C00008220649204600F011FD0422034910319E
:1002D000284600F00BFD70BD4000F81F5E000020B6
:1002E00002480068401C0149086070477C000020FB
:1002F00010B50024084800684021084306490860FA
:10030000002000F00BF8002801D0012401E000F0EB
:100310001FF8204610BD00000020024070B50446C2
:1003200000257D21C90009480068FFF7E1FE064667
:1003300000F0BAFC002801D0012504E0002221468B
:10034000501E00F035F8284670BD000078000020EF
:100350001CB50020009001900E48406B012108431D
:100360000C4948630846806B0904084309498863BF
:1003700000221146042000F01BF8042000F00CF8C5
:10038000002000900190684600F016FC00F080FC10
:100390001CBD00000010024000BFC206D20E0121A9
:1003A0009140024A116000BF7047000000E100E088
:1003B00070B504460D4616462946204601F0CAFA95
:1003C00070BD0246116801239B2080008350582095
:1003D000405A1843582358525820405A0223184371
:1003E000582358520020704701460A6801234D20C7
:1003F000C0004350002013235B01CB181870542019
:10040000805A01231843542398525420805A0223BF
:1004100018435423985200207047704770B5054622
:100420000C4680202040802805D16007060E284613
:100430002830311804E066012846FF302930311891
:10044000002A03D100200873CB8004E00120087348
:100450000B81180C4881002070BD70B504460D4614
:100460006B012146283159184A6927210901085989
:10047000294602F0DDF970BD70B504460D466B01EA
:100480002146FF31293159184A69272109010859A4
:10049000294602F063FA70BD70B504460E4680200E
:1004A0003040802807D17007010E204628300D18F3
:1004B0000120687007E07007010E2046FF302930E8
:1004C0000D18002068707007400F287000BF1120C1
:1004D00040012018007A012801D1022070BD0120BE
:1004E000112149016118087200BF2946206803F0F4
:1004F0002BF900BF0020112149016118087200BFCB
:1005000000BFEBE770B504460E463007000F616888
:10051000884201D9012070BD80203040802807D159
:100520007007010E204628300D180120687007E082
:100530007007010E2046FF3029300D18002068702A
:100540000020A8707007400F287000BF11204001E4
:100550002018007A012801D10220DCE701201121B6
:1005600049016118087200BF2946206803F048FA63
:1005700000BF0020112149016118087200BF00BFAF
:10058000C9E7FFB581B005460E461F460020009022
:1005900080203040802807D17007010E284628307F
:1005A0000C180120607007E07007010E2846FF302C
:1005B00029300C18002060707007400F20700398DD
:1005C0002061E7706078002801D02078E081022F58
:1005D00001D10020207100BF112040012818007AAD
:1005E000012802D1022005B0F0BD012011214901EE
:1005F0006918087200BF2146286802F06BFE00BF30
:100600000020112149016918087200BF0098EAE72B
:10061000FFB581B005460E4617467007010E284605
:10062000FF3029300C1867610498A0610020E06158
:1006300060707007400F20707007400F002804D1D1
:100640002146286803F072FA03E02146286803F087
:100650006DFA002005B0F0BD70B504460D46680780
:10066000400F6168884201D9012070BD8020284078
:10067000802807D16807010E204628300E18012077
:10068000707006E069012046FF3029300E18002006
:1006900070700120B0706807400F307000BF1120EB
:1006A00040012018007A012801D10220DDE7012055
:1006B000112149016118087200BF3146206803F01A
:1006C00007FA6807400F002805D1232109016118A6
:1006D000206803F091F900BF002011214901611841
:1006E000087200BF00BFC0E7FFB581B005460E46E7
:1006F00017467007010E284628300C1867610498C9
:10070000A0610020E061012060707007400F207040
:100710007007400F002804D12146286803F006FA2C
:1007200003E02146286803F001FA002005B0F0BD7F
:1007300010B50446206803F007FC0121C9030840F6
:10074000884202D1204601F041F9206803F0FCFB09
:1007500001218902084088420DD1206840308088FC
:100760008843216840318880204600F093F90021B9
:10077000204600F0C1F9206803F0E6FB012189035F
:100780000840884206D1206840308088884321682C
:1007900040318880206803F0D7FB012149030840DD
:1007A000884206D1206840308088884321684031E3
:1007B0008880206803F0C8FB0121090308408842B3
:1007C0002BD12068403000885849084021684031CA
:1007D00008802068403000885449091F084021687B
:1007E000403108801320400120180078012808D1EA
:1007F0000020132149016118087000212046FFF7ED
:100800000CFE204600F05AF9206840308088012113
:1008100009038843216840318880206803F094FBF5
:100820000121C9020840884224D120684030008854
:1008300008210843216840310880206840308088C2
:100840000121C902884321684031888020684030F6
:10085000008804210843216840310880206803F0A3
:1008600073FB012109030840000B002802D1204638
:1008700000F08EF9206803F067FB80210840802893
:1008800032D1206840308088884321684031888098
:100890001320400120180078002822D12068403021
:1008A00000880421084321684031088020684030D6
:1008B0000088082108432168403108800120132165
:1008C00049016118087020684030808AF021084092
:1008D000810899208000015101212046FFF79DFDEC
:1008E00002E0204600F054F9206803F02DFB0121BE
:1008F00049020840884209D12068403080888843F6
:10090000216840318880204600F0EEF8206803F02E
:100910001BFBFF2101310840884206D1206840308E
:100920008088884321684031888010BDFBFF00002B
:1009300030B585B00446002C02D1012005B030BD91
:10094000112040012018407A002806D111214901C8
:1009500061180872204600F083F803201121490134
:1009600061184872206803F03BF8002523E001215C
:100970006A0120462830101841706901204628304D
:10098000455469010818C58100216A0120462830B4
:100990001018C1706A0120462830101801616A01E0
:1009A00020462830101841616A012046283010186E
:1009B0008161681CC5B26068A842D8D8002523E0D0
:1009C00000216A012046FF3029301018417069016A
:1009D0002046FF302930455400216A011018C170AB
:1009E0006A012046FF302930101801616A01204653
:1009F000FF302930101841616A012046FF3029304C
:100A000010188161681CC5B26068A842D8D8142249
:100A1000214610316846FFF781FB20460FC802F0DF
:100A2000CFFF002806D00220112149016118487229
:100A3000012083E7002124200155012011214901D3
:100A400061184872E069012802D12046FFF7CCFC0A
:100A5000206A012802D12046FFF7B3FC00206DE791
:100A600010B504460949206888420ED10848806BB9
:100A70000121C905084306498863002211461F2049
:100A8000FFF796FC1F20FFF787FC10BD005C0040BD
:100A90000010024070B504460125A068022801D06C
:100AA000FFF7D1FB272109010859294602F09BF8DD
:100AB00027210901085902F03CF870BD10B5044621
:100AC000A069002807D00748006906218843054926
:100AD000086101F066F927210901085902F060F860
:100AE00010BD000000ED00E010B50446272109010B
:100AF000085902F060F810BD70B504460D4600BFFD
:100B0000112040012018007A012801D1022070BD77
:100B10000120112149016118087200BF24200555E8
:100B20002946206803F034FA00BF00201121490152
:100B30006118087200BF00BFE9E710B5044627211D
:100B40000901085923210901611802F063F810BD59
:100B500010B5044600BF112040012018007A01287A
:100B600001D1022010BD0120112149016118087234
:100B700000BF206802F01AFF206803F0D1F900BF1F
:100B80000020112149016118087200BF00BFE9E788
:100B900010B5044627210901085902F0A3F8A069FD
:100BA000002805D00348006906210843014908616F
:100BB00010BD000000ED00E029490968E0229143E2
:100BC00002681143264A116026494968012212042D
:100BD0009143244A5160114609680122120491434D
:100BE000204A11601146C9680122120491431D4A2E
:100BF000D16011468968012212049143194A91601B
:100C00000122120441681140914204D1154909683A
:100C10001143144A1160012252044168114091426B
:100C200005D110494968521011430E4A51600179AB
:100C3000C907C90F002906D00A4989680122120490
:100C40001143084A9160022241681140022905D1EE
:100C50000449C968D2031143024AD16070470000B9
:100C6000007000400004014003480068FF2101318A
:100C700088430149086070470070004003480068DD
:100C8000FF210131084301490860704700700040AE
:100C900003480068102108430149086070470000BC
:100CA000007000407047000070B504462546681E7D
:100CB0000949884201D901200CE0681E07494861B2
:100CC0000321081F00F046FE002004498861072028
:100CD0000861002070BD0000FFFFFF0000E000E0A1
:100CE00010B5FFF7DFFF10BD00BFFEE730B50B46C4
:100CF000002100BF12E0040F0A2C04D2040F30348C
:100D00004D005C5503E0040F37344D005C55000185
:100D100000254C00641C1D554C1CE1B29142EADBDD
:100D200030BD0000024949688143014A5160704763
:100D300000040140024909688143014A116070477B
:100D400000040140024949680143014A516070476B
:100D5000000401400249C9680143014AD16070475B
:100D600000040140024909680143014A11607047CB
:100D700000040140024989680143014A91607047BB
:100D80000004014070B504460025207900284DD0AC
:100D90002068002850D06079002804D0012809D0AC
:100DA000022815D10DE02068FFF7BCFF2068FFF78F
:100DB000D9FF0FE02068FFF7BDFF2068FFF7C2FFF3
:100DC00008E02068FFF7CEFF2068FFF7BBFF01E0D7
:100DD000012500BF00BFA07900282DD0A0790128EF
:100DE00004D002280DD003281DD115E02068134936
:100DF000C9688143114AD16000BF2068FFF7BAFF7C
:100E000013E020680D49896881430C4A916000BF56
:100E10002068FFF79FFF08E02068FFF7ABFF20681E
:100E2000FFF798FF01E0012500BF05E02068FFF70C
:100E300081FF2068FFF776FF284670BD000401405F
:100E4000F0B502460B460026002162E00124B440C2
:100E500018682040014600295AD0586814680D4689
:100E60004D436F00ED19AC430D464D4345432C43B4
:100E7000146000BF5868012802D0586802280DD1BC
:100E8000986894680D464D436F00ED19AC430D46CC
:100E90004D4345432C43946000BF00BF1869D4689C
:100EA0000D464D436F00ED19AC430D464D43454390
:100EB0002C43D46000BF5868022829D1FF2911D8DB
:100EC0005869146A0D464D434D434D432F017D1B18
:100ED000AC430D464D434D434D4345432C431462B3
:100EE00000BF15E05F69080A40430C0A60430C0A22
:100EF00060430401241A506AA0430C0A64430D0A9B
:100F00006C430D0A6C437C432043506200BF00BF1A
:100F1000761C1868F040002898D15868012802D043
:100F20005868022809D1DC68186855688543074667
:100F300067433D43556000BF00BF0020F0BD8162A4
:100F40007047000008B50549C96A0143034AD162E8
:100F50001146C96A0140009100BF08BD001002405F
:100F60000348006901218904084301490861704769
:100F700040100240F8B5069CF02515402D041607D8
:100F8000360B35430D43F0261E4036021F073F0D3A
:100F90003E433543F026264027073F0F3E43354367
:100FA0000095C569024E3540009E3543C561F8BDC8
:100FB000808080FFF0B585B005460E461446002EB1
:100FC0000DD1284600F066F9002800D002E000208C
:100FD000206000BFE068002800D10EE00DE0284648
:100FE00000F058F9002800D002E00020206000BF87
:100FF000E068002800D100E000BF284600F018F9A2
:10100000E06800281ED100BFE869012189078843F4
:10101000E86100BF002E04D0217C284600F06AF869
:1010200021E0207C0A21FFF763F80701207C0A21D8
:10103000FFF75EF80F43F8B201460390284600F030
:1010400059F810E000BFE869012189070843E86109
:1010500000BF207CE9690F2212069143020611436A
:10106000E96100BF00BF002E08D0A079009063792D
:10107000227928462168FFF77DFF2BE0A0790A211D
:10108000FFF736F80701A0790A21FFF731F80F437F
:10109000F8B2039060790A21FFF72AF80701607916
:1010A0000A21FFF725F80F43F8B2029020790A21B0
:1010B000FFF71EF8070120790A21FFF719F80F43FF
:1010C000F8B201900398009021682846029B019A8B
:1010D000FFF750FFA068E969054A11400143E96143
:1010E00000BF284600F0A9F8002005B0F0BD0000C0
:1010F0007F7F7F7F10B5F0220A4012060B071B0985
:101100001A43C3693F242406A3431A43C26110BD96
:10111000F8B5069CF02525402D042607360B3543EF
:101120004E033543F0261E4036021F073F0D3E4357
:101130003543F026164017073F0F3E4335430095D1
:101140004568034E3540009E35434560F8BD0000BC
:10115000C00000FFF7B584B00D461446012003908F
:10116000002D09D1607810210840102804D1607842
:10117000EF2108400A306070002D00D100E000BF70
:10118000049800F055F8049800F05AF8012843D06C
:10119000002D08D0E07800906378A2782178049838
:1011A000FFF7B6FF29E0E0780A21FEF7A1FF07016B
:1011B000E0780A21FEF79CFF0F43FEB260780A2117
:1011C000FEF796FF070160780A21FEF791FF0F43B3
:1011D000F8B20290A0780A21FEF78AFF0701A078F2
:1011E0000A21FEF785FF0F43F8B20096019021789F
:1011F0000246029B0498FFF78BFF0A4800F014F8A0
:10120000049800F084F8002804D1049800F016F93E
:10121000039001E000200390049800F00EF803987A
:1012200007B0F0BD002800408021C943C16070476D
:10123000CA214162532141627047FF2141627047D8
:10124000F8B505467D20C00000900026284600F035
:1012500052F800281CD100BF401EE86000BF28469D
:1012600000F049F804460EE000F06AF9012802D1C6
:101270000098401E0090284600F03DF80446009873
:10128000002800D101260098002801D0012CEBD1C4
:101290003046F8BD0146886840221040704770B55E
:1012A00004460D4601262046FFF7C2FF2046FFF701
:1012B000C7FF01281AD02868A16840229143014342
:1012C000A16000BFA8682169C90BC903014321615E
:1012D00000BF686821697F22120491430204114310
:1012E000216100BF2046FFF79FFF00262046FFF741
:1012F000A4FF304670BD0146C868402210408009F6
:1013000070470146C86820221040400970470146D6
:10131000886820221040400970470000F8B5069CFC
:10132000F02515402D041607360B35430D43F026E6
:101330001E4036021F073F0D3E433543F026264030
:1013400027073F0F3E43354300950568024E354061
:10135000009E35430560F8BD808080FFF7B584B0FE
:101360000D46144601200390002D09D10498FFF783
:1013700091FF002800D002E00020206000BF09E0BB
:101380000498FFF787FF002800D002E000202060CB
:1013900000BF00BF0498FFF74BFF0498FFF750FF12
:1013A000012843D0002D08D0A079009063792279DC
:1013B00021680498FFF7B2FF29E0A0790A21FEF71F
:1013C00097FE0701A0790A21FEF792FE0F43FEB2B5
:1013D00060790A21FEF78CFE070160790A21FEF789
:1013E00087FE0F43F8B2029020790A21FEF780FEB3
:1013F000070120790A21FEF77BFE0F43F8B2009621
:10140000019021680246029B0498FFF787FF0A4873
:10141000FFF70AFF0498FFF77AFF002804D1049829
:1014200000F00CF8039001E0002003900498FFF70F
:1014300004FF039807B0F0BD00280040F8B504464B
:101440007D20C0000090002500BFE068802108409A
:10145000A021C9430843E06000BF2046FFF751FFC9
:1014600006460EE000F06CF8012802D10098401EFC
:1014700000902046FFF745FF06460098002800D15F
:1014800001250098002801D0002EEBD1012D1BD0A2
:101490007D20C00000902046FFF733FF06460EE097
:1014A00000F04EF8012802D10098401E009020461E
:1014B000FFF727FF06460098002800D10125009875
:1014C000002801D0012EEBD12846F8BD30B50246E8
:1014D000012300BF1068402420408009002826D145
:1014E0004C68086820438C682043CC6820430C6912
:1014F00020434C6920438C692043CC6920430C6A0B
:10150000204314680D4D2C40204310605068042483
:10151000A0434C69240C204350605C03086AA0423D
:1015200004D1486A84B2146100BF00BF0023D069AF
:101530000124E402A043D061184630BD4000FFFF03
:1015400003480069012109040840000C70470000AD
:1015500000E000E0014908607047000078000020CA
:1015600010B503490348FEF76FFE0349087010BD2C
:10157000210000200C0000202000002010B588B0C1
:1015800000200690079018216846FEF7E0FD042031
:10159000FFF7D8FC0120FFF7D5FC0220FFF7D2FCB3
:1015A000082105200007FFF7CAFC01216D48FFF75D
:1015B000C6FC02216B48FFF7C2FC10216948FFF707
:1015C000BEFC022000900320019000200490694698
:1015D00005200007FFF734FC042000900320019051
:1015E00000200490694605200007FFF729FC082029
:1015F0000090012001900020029003900490694621
:1016000005200007FFF71CFC01200090019000203E
:1016100002900390049069465248FFF711FC0220A3
:1016200000900120019000200290039004906946F0
:101630004C48FFF705FC0420009000200190049026
:1016400069464848FFF7FCFBFF200130009000206E
:1016500001900490694605200007FFF7F1FB012087
:101660004002009000200190049069460520000788
:10167000FFF7E6FB0120800200900020019004901B
:10168000694605200007FFF7DBFB0120C00300903F
:101690000320019000200490694605200007FFF711
:1016A000CFFB0820009003200190002004906946A1
:1016B0002C48FFF7C5FB102000900120019000206E
:1016C00002900390049069462648FFF7B9FBFF207B
:1016D00001300090032001900020049069462148C9
:1016E000FFF7AEFB01212048204A03069B0DD2588C
:1016F000040C0F23A3409A43040C0B46A3401A4347
:101700001A4B0406A40D1A5100BF20200021154ACF
:10171000D268034643435C001B199A430346434384
:101720004B431A430F4BDA6000BF00BF1A461268E2
:10173000034643435C001B199A43034643434B4310
:101740001A43084B1A6000BF0690012168460177D2
:10175000002141770121817706A8FFF713FB08B02C
:1017600010BD00000004005001000400080001400A
:101770007047704700B58BB00020089009900A9020
:1017800006900790059014216846FEF7E0FCFFF7ED
:10179000E7FB002008907F200990FF200A9008A90D
:1017A0001C48FFF77CFD002168460177417781776F
:1017B00006AA01211748FFF7D1FD012168460175EE
:1017C00041750021C17505AA01211248FFF7C2FC2D
:1017D00000216846017141718171002002900390DF
:1017E0000121684601746A460A48FFF7E3FB00BF1F
:1017F000084880680121890208430649886000BFC3
:1018000000208968C908C9000143024A916000BFED
:101810000BB000BD0028004000B591B0282107A8FA
:10182000FEF795FC182101A8FEF791FC01200003AA
:101830003549496B0143344A51631146496B0140B4
:10184000009100BF00BF0120FFF77CFB102001903A
:10185000022002900320039000200490059006903F
:1018600001A905200007FFF7EBFA202001900220D4
:10187000029003200390002004900590069001A997
:1018800005200007FFF7DCFA4020019002200290BB
:1018900003200390002004900590069001A90520E4
:1018A0000007FFF7CDFA802001900220029003206C
:1018B0000390002004900590069001A905200007E0
:1018C000FFF7BEFA00200790FF20053008900020A7
:1018D00009900A900B90012080040C9038200D9004
:1018E00000200E900F900720109007A90748FFF7DF
:1018F000EDFD002005494968102291430143034A48
:10190000516000BF11B000BD001002400030014026
:1019100010B500220B490C4800F040FF002801D010
:10192000FEF791FC0949084801F018FA002801D097
:10193000FEF789FC044801F0F9FA002801D0FEF70F
:1019400082FC10BD280000208C01002084000020B3
:101950007047000010B5002819DA1A4A03071B0F58
:10196000083B9B089B00D2588307DC0EFF23A34053
:101970009A438B071B0E8407E40EA3401A43114BB6
:101980000407240F083CA408A4001A5118E00E4ACA
:1019900003231B02D21883089B00D2588307DC0E56
:1019A000FF23A3409A438B071B0E8407E40EA3403A
:1019B0001A43054B032424021B198408A4001A515E
:1019C00010BD00001CED00E000E100E0FEB50546A2
:1019D000CCE1286840308088029002980607360FD4
:1019E000002E70D1102102980840002836D100BF87
:1019F00029680988E24A114008460121C9030143C8
:101A00002A68118000BF2C46283428684030008A9C
:101A10002178C9004018801C012292022968891887
:101A2000405A8005800DE061E1696069401860619D
:101A300000212846FEF711FD2420405D0028C7D074
:101A4000A0690028C4D12420405D80210843296872
:101A50004031888100212420415587E12C46FF3404
:101A600029342868008801900121C90201980840A2
:101A7000002829D028684030008A2178C900401801
:101A8000801D0122920229688918405A8005800D24
:101A9000E061A08B83B2E2882868009023200001D7
:101AA0002918009802F054FA00BF29680988B54A3D
:101AB00011400846802101432A68118000BF284652
:101AC000FFF73BF852E17CE00121C903019808408F
:101AD0000028C2D000BF29680988AA4A11400846D8
:101AE000802101432A68118000BF28684030008AA5
:101AF0002178C9004018801D0122920229688918A6
:101B0000405A8005800DE061E06900280BD0A08B71
:101B100083B2E28861692868009002F019FAE169ED
:101B200060694018606100212846FEF7A5FC00BFEF
:101B300029680091296840310A8A0099511800915A
:101B40000122920200998918891D084600BF226966
:101B5000002A09D102888C4B1A4002800288012396
:101B6000DB031A43028018E022693E2A0CD200BF30
:101B700022695108227CD207D20F002A00D0491CCA
:101B80008A06120C028008E000BF226951098A020D
:101B90000123DB031A43028000BF00BF00BF00BF68
:101BA00029680988794A11400846012109034840FB
:101BB0004900484089000143802211432A6811806E
:101BC000D4E0B1002868405A01900121C90301986E
:101BD000084000287ED000BFB2002968895A694AAF
:101BE0001140084680210143B3002A68D15200BF4A
:101BF00071012846FF3029300C18207B002817D1AE
:101C000028684030008A2178C9004018801D0122D0
:101C1000920229688918405A8705BF0D002F54D0B9
:101C2000E288616928683B46009002F091F94CE037
:101C3000217889002868405A01218903084000283A
:101C400017D028684030008A2178C9004018801CCD
:101C50000122920229688918405A8705BF0D002F7A
:101C60001ED02289616928683B46009002F070F915
:101C700016E028684030008A2178C9004018801D8D
:101C80000122920229688918405A8705BF0D002F4A
:101C900006D06289616928683B46009002F058F9D5
:101CA00000BF00BF227892002968895A344A8032E6
:101CB000114008460121C9030143C0221143237882
:101CC0009B002A68D15200BF00BFE069C019E061E3
:101CD000606900E012E0C0196061A069002802D0CC
:101CE0002069B84204D921782846FEF7C5FB05E0F3
:101CF00021782846A3696269FEF78AFC8021019851
:101D00000840002832D07101284628300C1800BF46
:101D1000B2002968895A1A4A114008460121C903AC
:101D20000143B3002A68D15200BF28684030008ABE
:101D30002178C9004018801C012292022968891864
:101D4000405A8005800DE061E1696069401860617A
:101D5000A069002804D121782846FEF77EFB05E023
:101D600021782846A3696269FEF7BEFC28684030E6
:101D700080880121C9030840002800D029E6FEBD63
:101D80000F8F00008F0F0000FF8300008FBF000047
:101D900070477047704710B5FEF7A2FAFEF7A0FF34
:101DA00010BD10B500F002F810BD000010B5002005
:101DB000904909684908490001438E4A116000BFF3
:101DC00000BF10460068C007C00F002801D0FEF712
:101DD0003AFA0120C002884909680322D2029143DD
:101DE0000143854A116000BF00BF8448006801219B
:101DF00008438249086000BF00BF00BF7F480068F9
:101E00000421084080080028F7D010207B49496849
:101E10001F221202914302021143784A516000BF0F
:101E200000BF10468068012108431146886000BF4A
:101E300000BF00BF714880680221084040080028A8
:101E4000F7D000BF6C480068C90108436A490860C0
:101E500000BF00BF6948403000690121C904084340
:101E600066494031086100BF00BF08460069012192
:101E7000C904884361494031086100BF00200969F5
:101E80000322D202914301435C4A4032116100BFF8
:101E900000BF10460069911508431146086100BF54
:101EA00000BF00BF55484030006901214902084089
:101EB000400A0028F5D0C801504940310969032281
:101EC0001204914301434D4A4032116100BFFFF7B4
:101ED00047F800BF494840300069012149030843E1
:101EE00046494031086100BF00204449C968F022DA
:101EF00091430143414AD16000BF00BF1146C96808
:101F000007221202914301433C4AD16000BF00BF47
:101F10001146C9680722D20291430143374AD16072
:101F200000BF01201146C968890889000143D160BA
:101F300000BF00BF00BF3148C0680C210840042822
:101F4000F8D12F48FFF706FB032000042B4940314E
:101F5000C9680209FF231B031A40914302011A407A
:101F60001143264A4032D16000BF10051146C968AE
:101F7000024691430143214A4032D16000BF002014
:101F80002049496807221206914301431D4A5160C6
:101F900000BF00BF1146496849004908014351602C
:101FA00000BF012000071146496803221207914330
:101FB0000143144A516000BF134811464968090C97
:101FC00009040143516000BF2220114649681A01EB
:101FD0009143020411430B4A516000BF2020114677
:101FE00009683F221202914302021143054A11601F
:101FF00000BF10BD002002400070004000100240F1
:102000000024F400006C0040B7050000154800688B
:10201000FF2101310843134908600846C06812498E
:1020200008401049C86008460068104908400D493A
:1020300008600846806840084000886008460068DC
:10204000012189048843074908600846C068FD21CA
:10205000090488430349C86000200861C803044993
:1020600088607047001002400C40FF88F6FFF6FEC3
:1020700000ED00E070B504460D460520C0012018B3
:10208000C0682946426820469047002070BD70B560
:1020900004460D46132040012018007D012804D07D
:1020A000022803D003280DD101E000BF00BF6888DB
:1020B000012806D100219F2080000151204600F018
:1020C0004CF804E02946204600F01BF800BF00BF92
:1020D00070BD70B506460C4615462B4622460021BB
:1020E000304600F00EFD002070BD70B506460C466F
:1020F00015462B4622460021304600F003FE002004
:1021000070BD70B504460D468021204600F0C6FD26
:102110000021204600F0C2FD70BD10B50446052127
:102120009B208000015100231A461946204600F0EA
:10213000E8FC002010BD70B504460E46154602218D
:102140009B2080000151E56125622B46324600212B
:10215000204600F0D7FD002070BD10B504460421D4
:102160009B208000015100231A461946204600F0AA
:10217000C9FD002010BD000070B505460C46002DBD
:1021800005D12246054906A000F0AAF904E022463E
:10219000024903A000F0A4F9004870BDB006002079
:1021A00048494420436F6E6669670000024612206A
:1021B00008800148704700004400002070B50546C3
:1021C0000C46002D05D12246054906A000F088F9ED
:1021D00004E02246024903A000F082F9004870BDE5
:1021E000B006002048494420496E746572666163F8
:1021F0006500000002460420088001487047000086
:102200005800002070B505460C462246024903A03E
:1022100000F066F9004870BDB006002053544D69C7
:1022200063726F656C656374726F6E6963730000CF
:1022300070B505460C46002D05D12246054906A07D
:1022400000F04EF904E02246024903A000F048F9EC
:10225000004870BDB006002053544D3332204875FD
:102260006D616E20696E7465726661636500000061
:1022700070B505460C461A202080FEF719F8014873
:1022800070BD00005C00002070B504460D46E88873
:10229000012804D029462046FFF733FF20E0132011
:1022A00040012018007D012804D0022803D0032813
:1022B00010D109E000BF0020A060012221460831B2
:1022C0002046FFF738FF0AE00122211D2046FFF7D4
:1022D00032FF04E029462046FFF713FF00BF00BF8E
:1022E00070BDF8B504460E4670880012030001F078
:1022F00095FE0897050F289797738497207C0521F2
:10230000C901611889680A686946904705468CE0EA
:10231000207C00280AD10520C0012018C068816AED
:102320006846884705460221697009E00520C0011A
:102330002018C068C16A684688470546022169704E
:1023400073E0B078030001F069FE06040E18222C39
:102350003640207C0521C901611889684A686946B0
:102360009047054636E0207C0521C901611889683F
:102370008A686946904705462CE0207C0521C90102
:1023800061188968CA6869469047054622E0207C42
:102390000521C901611889680A696946904705469F
:1023A00018E0207C0521C901611889684A696946DD
:1023B000904705460EE0207C0521C9016118896817
:1023C0008A6969469047054604E031462046FFF792
:1023D00098FEF8BD00BF28E0207C002808D1052029
:1023E000C0012018C068416B6846884705461CE05C
:1023F00031462046FFF785FEEBE7207C00280AD116
:102400000520C0012018C068016B68468847054652
:102410000721697009E031462046FFF772FED8E7D0
:1024200031462046FFF76DFED3E700BF68460088BF
:10243000002812D0F08800280FD0F088694609885B
:10244000884202DD6846008800E0F0880090694616
:102450000A8829462046FFF76EFEF088002802D140
:102460002046FFF77AFE00BFB3E70146002002E0F6
:10247000421CD0B2491C0A78002AF9D1704770B5C5
:1024800004460D46132040012018007D012804D089
:10249000022803D003281CD101E000BF00BFE88858
:1024A000022804D029462046FFF72BFE16E0012023
:1024B000E0609F2080000059002803D00221E068DE
:1024C0000843E060022221460C312046FFF733FE2C
:1024D00004E029462046FFF714FE00BF00BF70BD90
:1024E000F8B504460D4617460026002C1ED020469F
:1024F000FFF7BBFF4000801C38803A783046711CE3
:10250000CEB22A5403223146701CC6B26A540AE085
:1025100022783046711CCEB22A54641C0022304608
:10252000711CCEB22A5420780028F1D1F8BD0146A2
:102530000020002906D0012906D0022906D003294F
:1025400008D105E0002007E0022005E0012003E0BB
:10255000022001E0022000BF00BF704702460020B9
:102560000523DB01D3181B691873704770B5044647
:102570000D468121204600F048F90021E162052046
:10258000C0012018006900280AD00521C90161187E
:10259000086900F097FE00200521C9016118086153
:1025A000002070BD01460A200880014870470000E5
:1025B00034010020014622200880014870470000B5
:1025C000BC0000200146222008800148704700001E
:1025D000E0000020014622200880014870470000EA
:1025E0000401002070B504460D4604230322812116
:1025F000204600F06EFA0121E162102000F064FE36
:102600000521C901611808610520C0012018006971
:10261000002801D1022070BD00200521C9016118E8
:102620000969087300BFF6E7FEB506460C460520AB
:10263000C001301805690027002002900190009029
:10264000207860210840002826D0202877D16078A3
:10265000022812D0032806D00A280AD00B2812D14B
:10266000A078286016E0012229463046FFF763FD76
:1026700010E06088001268600CE00122291D3046DD
:10268000FFF759FD06E021463046FFF73AFD0220EC
:10269000009000BF00BF7AE06078002806D00628CE
:1026A00017D00A283ED00B2861D150E013204001FA
:1026B0003018007D032805D1022201A93046FFF71A
:1026C0003AFD05E021463046FFF71BFD0220009051
:1026D00054E060880012222809D1E0884A2801D9F4
:1026E0004A2000E0E08807462A48029014E060880B
:1026F0000012212809D128480290E088092801D930
:10270000092000E0E088074606E021463046FFF752
:10271000F8FC0220009031E03A4630460299FFF77B
:102720000AFD2BE0132040013018007D032807D15B
:102730000122294608313046FFF7FDFC06E01FE084
:1027400021463046FFF7DDFC0220009016E0132002
:1027500040013018007D032802D1A078A86005E070
:1027600021463046FFF7CDFC0220009006E02146CE
:102770003046FFF7C6FC0220009000BF00BF06E015
:1027800021463046FFF7BDFC0220009000BF00BF8D
:102790000098FEBD400100202801002070B50446CD
:1027A0000D461646002C01D1022070BD0520C00147
:1027B0002018C068002804D000200521C901611834
:1027C000C860002D03D00520C001201885600120BD
:1027D00013214901611808752670204600F020F980
:1027E0000020E2E7F8B504460D4600260027052143
:1027F000C901611888692946FDF784FE06463046FE
:10280000FFF795FE07463846F8BDF8B504460D4675
:10281000002600270521C901611888692946FDF7AE
:102820003BFE06463046FFF782FE07463846F8BDB7
:10283000F8B504460E461746002E75D125461435C8
:102840009B2080000059022850D12969E8688842FD
:1028500010D92969E868401AE860A88982B2394627
:102860002046FFF742FC00231A461946204600F096
:1028700048F949E02969A868FDF73AFC002919D10F
:102880002969A868884215D3272000010059A96842
:1028900081420FD2002211462046FFF726FC00217C
:1028A00027200001015100231A461946204600F056
:1028B00028F929E00520C0012018C068C068002858
:1028C0000CD0132040012018007D032806D10520DC
:1028D000C0012018C068C168204688478021204672
:1028E00000F0DCF92046FFF718FC0DE09B2080008B
:1028F0000059042804D09B2080000059002803D1EF
:102900008021204600F0CAF9132040012018007EE3
:10291000012821D1204600F02CFA00201321490182
:102920006118087618E0FFE70520C0012018C0688C
:10293000406900280ED0132040012018007D032894
:1029400008D10520C0012018C068314642692046E0
:10295000904701E00220F8BD0020FCE7F8B50446EE
:102960000E461746002E41D12546FF3541359B20A6
:102970008000005903282CD12969E868884210D9C1
:102980002969E868401AE8602969E868884201D244
:10299000E86800E0286982B239462046FFF799FBD3
:1029A0003CE00520C0012018C068006900280CD058
:1029B000132040012018007D032806D10520C00106
:1029C0002018C0680169204688472046FFF7C5FBEC
:1029D00024E09B208000005905281FD100219B2066
:1029E00080000151204600F059F917E00520C00190
:1029F0002018C068806900280ED0132040012018DC
:102A0000007D032808D10520C0012018C068314688
:102A100082692046904701E00220F8BD0020FCE7D3
:102A200010B504461B4804671B480521C9016118FD
:102A300088611A4818490860082048600221164831
:102A40008160016100218161C1610162FDF770FF58
:102A5000002801D0FDF7F7FB0521C90161181823F3
:102A6000002288691146FDF7D9FC0521C9016118CA
:102A70005823002288698021FDF7D0FC0521C90177
:102A80006118FF230133002288698121FDF7C6FC0C
:102A9000002010BD2806002028040020005C004013
:102AA00010B502460520C001101883698020084037
:102AB000802806D14806040D184628302018807852
:102AC00010BD4806040D1846FF30293020188078C4
:102AD000F6E7FEB504460F4615461E460020019057
:102AE00000900521C90161182B4632468869394694
:102AF000FDF747FD01900198FFF719FD0090009840
:102B0000FEBDFEB504460D4616461F460020019048
:102B100000900521C90161183B4632468869294663
:102B2000FDF776FD01900198FFF701FD00900098F8
:102B3000FEBD10B504464023002211462046FFF793
:102B4000C8FF0121FF20453001514021FF205130B5
:102B500001514023002280212046FFF7BAFF0121C6
:102B6000A1614021616201201321490161180875AA
:102B700000219B2080000151002060609F20800088
:102B80000151001D20180069002807D02179052077
:102B9000C0012018C068426820469047002010BD40
:102BA0000146132040010818407D132252018A1863
:102BB00010750020704710B50446132040012018FE
:102BC000007D03280DD10520C0012018C068C06910
:102BD000002806D00520C0012018C068C169204621
:102BE0008847002010BD0246117400207047F8B5D8
:102BF00004460D46002600270521C9016118886991
:102C00002946FDF779FF06463046FFF790FC074658
:102C10003846F8BD70B504460D4629460520C0016A
:102C2000201800F087F801219B2080000151052029
:102C3000C0012018C1882720000101510520C001D2
:102C400020180078C006C00E002804D0012809D042
:102C5000022815D10DE00520C0012118204600F002
:102C60006CF918E00520C0012118204600F0E4FAB4
:102C700011E00520C0012118204600F0B2F90AE059
:102C80000520C0012018007880221040014620460F
:102C900000F004F800BF00BF002070BDF8B5044686
:102CA0000D46002600270521C901611888692946BB
:102CB000FDF7D2FC06463046FFF739FC074638469A
:102CC000F8BD70B50446002500260521C90161182C
:102CD0008869FDF73DFF05462846FFF728FC0646B4
:102CE000304670BD0146132040010818007D1322B4
:102CF00052018A1850750420132252018A18107547
:102D000000207047FEB504460D4616461F460020BB
:102D1000019000900521C90161183B46324688693F
:102D20002946FDF7E1FC01900198FFF700FC0090B7
:102D30000098FEBD0A7802704A7842708B78CA7893
:102D400012029A1842800B794A7912029A188280EC
:102D50008B79CA7912029A18C28070470246002005
:102D6000002904D00523DB01D318D96000E002203C
:102D7000704701460020704770B504460D46A8888C
:102D800000282CD1E888002829D16888802826D2FC
:102D9000A8784606760E132040012018007D0328EF
:102DA00004D129462046FFF7ACF91CE0132040016E
:102DB0002018867531462046FFF719FF2046FFF799
:102DC000CCF9002E05D002201321490161180875A5
:102DD00009E00120132149016118087503E0294623
:102DE0002046FFF78EF970BD70B504460D460226E9
:102DF0000520C0012018C06800280AD00520C001A5
:102E00002018C0682946026820469047002800D153
:102E10000026304670BD000070B504460D46A87807
:102E20003A49087008460078012804D92946204606
:102E3000FFF767F968E0132040012018007D0228A1
:102E400002D0032855D11FE030480078002817D061
:102E50002E4800786060032013214901611808752D
:102E60002A4801782046FFF7BFFF022804D12946EF
:102E70002046FFF746F970BD2046FFF76EF902E0E5
:102E80002046FFF76AF93EE020480078002810D17C
:102E9000022013214901611808751C480078606000
:102EA0001A4801782046FFF7E5F82046FFF755F964
:102EB0001EE0164909786068884216D021792046BC
:102EC000FFF7D8F811480078606010480178204674
:102ED000FFF78AFF022804D129462046FFF711F99F
:102EE000C9E72046FFF739F902E02046FFF735F938
:102EF00009E029462046FFF704F9044801782046F6
:102F0000FFF7B8F800BF00BF00BFB4E780000020A3
:102F100070B505460C466088012806D101219F2026
:102F2000800041512846FFF718F970BD10B50446DE
:102F30002046FFF7C6FE002010BD70B505460C46C2
:102F4000002620786021084000280ED0202802D0DA
:102F500040283ED100E000BF0520C0012818C0680D
:102F6000214682682846904738E06078030001F0E7
:102F700055F80A1A24291F290B062915102921465C
:102F80002846FFF7AEF922E021462846FFF7F4FE77
:102F90001DE021462846FFF73FFF18E0214628465E
:102FA000FFF772F913E021462846FFF768FA0EE0B2
:102FB00021462846FFF7ACFF09E021462846FFF7E7
:102FC00066F804E021462846FFF79BF800BF00BFE3
:102FD00004E021462846FFF794F800BF00BF3046C2
:102FE00070BDF8B505460E46002000903479307863
:102FF0006021084000280ED0202802D0402870D13F
:1030000000E000BF0520C0012818C0683146826872
:10301000284690470DE130786021084020280AD1E9
:103020000520C0012818C0683146826828469047AC
:1030300000900098F8BD7078002869D0012835D03C
:10304000032877D1132040012818007D022802D0E0
:10305000032824D111E0002C0AD0802C08D021466E
:103060002846FFF71BFE80212846FFF717FE03E0E6
:1030700031462846FFF745F816E0708800280AD147
:10308000002C08D0802C06D0F088002803D12146DF
:103090002846FFF703FE2846FFF75FF804E03146B5
:1030A0002846FFF72EF800BF00BFBBE01320400109
:1030B0002818007D022802D0032822D112E0002C1B
:1030C0000AD0802C08D021462846FFF7E7FD802152
:1030D0002846FFF7E3FD03E031462846FFF711F8E5
:1030E00014E0A1E0708800280AD16006400E002894
:1030F00003D021462846FFF775FB2846FFF72DF839
:1031000004E031462846FEF7FCFF00BF00BF89E01F
:10311000132040012818007D022802D0032875D111
:1031200025E0002C07D0802C05D031462846FEF73C
:10313000E8FF70E071E080202040802806D1600622
:10314000400E142148436918401807E06006400EFD
:10315000142148432946FF314131401807460020D9
:103160003860022239462846FEF7E5FF53E080200A
:10317000204080280DD12007000F142148436918F2
:1031800040184068002814D131462846FEF7B9FFA0
:1031900041E02007000F142148432946FF31413107
:1031A00040184068002804D131462846FEF7A9FFA0
:1031B00031E080202040802806D16006400E142196
:1031C00048436918401807E06006400E1421484340
:1031D0002946FF31413140180746002C01D0802C90
:1031E00002D1002038600AE021462846FFF758FC4B
:1031F000002802D00120386001E00020386002225F
:1032000039462846FEF797FF05E0FFE73146284696
:10321000FEF777FF00BF00BF04E031462846FEF707
:1032200070FF00BF00BF04E031462846FEF769FF8B
:1032300000BF00BF0098FDE670B505460C460026AD
:10324000207860210840002806D0202802D040289D
:1032500030D100E000BF00BF132040012818007DDE
:10326000012804D0022803D003281CD101E000BFAC
:1032700000BF2079012811D80520C0012818C06896
:1032800021468268284690470646E088002809D1F2
:10329000002E07D12846FEF760FF03E021462846AE
:1032A000FEF72FFF04E021462846FEF72AFF00BF65
:1032B00000BF04E021462846FEF723FF00BF00BF01
:1032C000002070BD704700000146014870470000B3
:1032D0009C060020F8B50246002000900878800087
:1032E000105AFE4C20400346C878002806D001281A
:1032F0000ED0022806D003280ED105E0012040029E
:1033000003430CE000BF0AE003204002034306E051
:1033100001208002034302E00120009000BF00BFB3
:103320001846EF4C20430C78A400105300BF0C78D3
:10333000A400145BEB4D2C400D782C432046012457
:10334000E403044380252C430D78AD00545300BFA3
:10335000087B00287DD1487800284ED000BF104659
:103360005025AD5A28180D78ED000126B6028619B1
:10337000AC19CD886D106D00258000BF00BF0C78A2
:10338000A400105B40240440002C0FD000BF0D7837
:10339000AD00555BD34E35402C460125ED0325434A
:1033A000C02635430E78B600955300BF00BFC878DD
:1033B000012811D000BF0C78A400145BC94D303532
:1033C0002C40204620246040A402044380252C4346
:1033D0000D78AD005453B0E100BF0C78A400145B2D
:1033E000C04D30352C4020460124E40304438025A1
:1033F0002C430D78AD0054539FE100BF104650257B
:10340000AD5A28180D78ED002D1D0126B60286193B
:10341000AC19CD886D106D00258000BF00BF15462A
:103420005024A45A65190C78E400A41D0126B602A4
:10343000AE19A419204600BF0E69002E0AD10688D5
:10344000A94F3E40068006880127FF033E430680C1
:1034500019E049E00E693E2E0CD200BF0E697408D7
:103460000E7CF607F60F002E00D0641CA606360C64
:10347000068008E000BF0E697409A6020127FF0359
:103480003E43068000BF00BF00BF00BF0C78A40011
:10349000105B0124A4030440002C10D000BF0D7861
:1034A000AD00555B8F4E35402C460125ED0325437D
:1034B0008126F60135430E78B600955300BF00BF54
:1034C00000BF0C78A400145B884D2C4020460124DA
:1034D0002403604064006040A400044380252C4322
:1034E0000D78AD00545328E100BF0C78A400145BA4
:1034F0007C4D2C4020460124E4030443FF25813504
:103500002C430D78AD00545300BF00BF00BF00BF77
:1035100010465025AD5A28180D78ED000126B60248
:103520008619AC190D896D106D00258000BF00BF94
:1035300000BF00BF10465025AD5A28180D78ED0089
:103540002D1D0126B6028619AC194D896D106D002E
:10355000258000BF00BF00BF4878002868D100BFA9
:103560000C78A400105B0124A4030440002C10D0AC
:1035700000BF0D78AD00555B5A4E35402C460125F5
:10358000ED0325438126F60135430E78B6009553A9
:1035900000BF00BF00BF0C78A400105B40240440B3
:1035A000002C0FD000BF0D78AD00555B4D4E35405F
:1035B0002C460125ED032543C02635430E78B60081
:1035C000955300BF00BF00BF0C78A400145B454DAD
:1035D0002C4020460124E4030443C0252C430D78ED
:1035E000AD00545300BF00BF0C78A400145B3F4DE6
:1035F0002C40204601242403604064006040A40065
:10360000044380252C430D78AD00545300BF00BF08
:103610000C78A400145B334D30352C402046012437
:10362000E403044380252C430D78AD00545384E01B
:1036300000BF0C78A400105B0124A4030440002CFC
:1036400010D000BF0D78AD00555B264E35402C469E
:103650000125ED0325438126F60135430E78B6009A
:10366000955300BF00BF00BF0C78A400105B40243E
:103670000440002C0FD000BF0D78AD00555B194EF3
:1036800035402C460125ED032543C02635430E78F1
:10369000B600955300BF00BF00BF0C78A400145BB8
:1036A000104D2C4020460124E40304438125ED0104
:1036B0002C430D78AD00545300BFC87801281CD0AE
:1036C00000BF0C78A400145B064D30352C4020461A
:1036D00020246040A4020443802509E08F89000073
:1036E000808000008F8F0000FF8300008FBF0000EC
:1036F0002C430D78AD0054530FE000BF0C78A400AC
:10370000145B0F4D2C4020460124E4030443802524
:103710002C430D78AD00545300BF00BF0C78A400BB
:10372000145B084D2C4020460124E403044380250B
:103730002C430D78AD00545300BF0098F8BD000035
:10374000BF8F00008FBF000030B50246087B002805
:1037500057D14878002829D000BF0B789B00D05A59
:1037600040230340002B0FD000BF0C78A400145B53
:103770008C4D2C4023460124E4031C43C0252C43DC
:103780000D78AD00545300BF00BF00BF0B789B0005
:10379000D35A844C3034234018460123DB030343BF
:1037A000802423430C78A4001353F8E000BF0B7867
:1037B0009B00D05A01239B030340002B10D000BF75
:1037C0000C78A400145B774D2C4023460124E403BD
:1037D0001C438125ED012C430D78AD00545300BFEF
:1037E00000BF00BF0B789B00D35A6F4C2340184694
:1037F0000123DB030343802423430C78A4001353E9
:10380000CDE04878002864D100BF0B789B00D05AE7
:1038100001239B030340002B10D000BF0C78A400B1
:10382000145B604D2C4023460124E4031C43812596
:10383000ED012C430D78AD00545300BF00BF00BF15
:103840000B789B00D05A40230340002B0FD000BFC1
:103850000C78A400145B534D2C4023460124E40350
:103860001C43C0252C430D78AD00545300BF00BF4E
:1038700000BF0B789B00D35A4A4C234018460123C3
:10388000DB030343C02423430C78A400135300BF7D
:1038900000BF0B789B00D35A434C234018460123AA
:1038A000DB030343802423430C78A400135300BF9D
:1038B00000BF0B789B00D35A3A4C30342340184653
:1038C0000123DB030343802423430C78A400135318
:1038D00065E000BF0B789B00D05A01239B03034097
:1038E000002B10D000BF0C78A400145B2D4D2C4091
:1038F00023460124E4031C438125ED012C430D786C
:10390000AD00545300BF00BF00BF0B789B00D05ADE
:1039100040230340002B0FD000BF0C78A400145BA1
:10392000204D2C4023460124E4031C43C0252C4396
:103930000D78AD00545300BF00BF00BF0B789B0053
:10394000D35A184C234018460123DB030343812438
:10395000E40123430C78A400135300BF00BF0B788D
:103960009B00D35A0F4C3034234018460123DB030D
:103970000343802423430C78A400135300BF00BFEB
:103980000B789B00D35A084C234018460123DB03D5
:103990000343802423430C78A400135300BF00206A
:1039A00030BD00008F8F00008FBF000001465820FF
:1039B000405A0122D203104358225052002070472F
:1039C00010B5044601214020015300210153442039
:1039D000015350200153204600F0A2FA002010BDF0
:1039E0000146044A4020405A904340235852002048
:1039F0007047000080BF00000246002070470000B2
:103A000030B50246487800282CD000BF0B789B00C8
:103A1000D05A40230340002B0FD000BF0C78A400E5
:103A2000145B294D2C4023460124E4031C43C0258C
:103A30002C430D78AD00545300BF00BF00BF0B787E
:103A40009B00D35A204C3034234018461023584052
:103A5000202358409B020343802423430C78A40076
:103A600013532EE000BF0B789B00D05A01239B0319
:103A70000340002B10D000BF0C78A400145B124D43
:103A80002C4023460124E4031C438125ED012C43F3
:103A90000D78AD00545300BF00BF00BF0B789B00F2
:103AA000D35A0A4C2340184601231B0358405B009D
:103AB00058409B000343802423430C78A4001353F5
:103AC00000BF002030BD00008F8F00008FBF0000BE
:103AD00010B502464878002810D000BF0B789B0034
:103AE000D35A104C2340184610235840DB0203439E
:103AF000802423430C78A400135311E000BF0B78FB
:103B00009B00D35A084C2340184601231B035840FE
:103B1000DB000343802423430C78A400135300BF2D
:103B2000002010BDBF8F00008FBF0000FEB505460E
:103B30000C466078012876D12169A069884204D9B1
:103B40002669A069801BA06102E0A6690020A0612F
:103B5000207B002813D1B3B2E2882846616900F0C7
:103B60001FFA00BF28465022525B10182278D2005C
:103B7000921C01239B02C318D1180E80CCE0207840
:103B80008000285A4021084000284DD000BF0195F0
:103B90006078002830D100BF2A465021495B8A183E
:103BA0002178C900891D01239B02D318C918084632
:103BB00000BF002E09D10388D64F3B400380038805
:103BC0000127FF033B43038014E03E2E0AD200BFCF
:103BD0007108F307DB0F002B00D0491C8B061B0C70
:103BE000038007E000BF71098B020127FF033B43FD
:103BF000038000BF00BF12E0607801280FD1502081
:103C0000415B0198081801902078C000801D0122B6
:103C1000920201998918401800900098068000BF10
:103C20006089029049E08BE000BF6078002830D1C5
:103C300000BF2A465021495B8A182178C900891C97
:103C400001239B02D318C918084600BF002E09D1D2
:103C50000388B04F3B40038003880127FF033B43A9
:103C6000038014E03E2E0AD200BF7108F307DB0F79
:103C7000002B00D0491C8B061B0C038007E000BF03
:103C800071098B020127FF033B43038000BF00BF84
:103C900010E0607801280DD100BF28465022525B09
:103CA00010182278D200921C01239B02C318D1184D
:103CB0000E8000BF00BF20890290B3B26169284620
:103CC000029A00F06DF900BF607800280FD100BFA4
:103CD00021788900695A904A114008460121C90398
:103CE0000143C022114322789200A95213E0607868
:103CF000012810D100BF21788900695A864A1140F5
:103D000008460121C90301438122D20111432278CF
:103D10009200A95200BF00BF00BF21788900695AF4
:103D20007D4A303211400846102148402021484049
:103D3000890201438022114322789200A952E6E0D1
:103D40002169A069884204D92669A069801BA06105
:103D500002E0A6690020A061207B002830D100BFCE
:103D60002A465021495B8A182178C900891D012300
:103D70009B02D318C918084600BF002E09D103883A
:103D8000644F3B40038003880127FF033B430380CC
:103D900014E03E2E0AD200BF7108F307DB0F002BA0
:103DA00000D0491C8B061B0C038007E000BF710983
:103DB0008B020127FF033B43038000BF00BF92E05B
:103DC00000BF00BF6078002830D100BF2A465021D4
:103DD000495B8A182178C900891C01239B02D318EA
:103DE000C918084600BF002E09D10388494F3B403F
:103DF000038003880127FF033B43038014E03E2E2A
:103E00000AD200BF7108F307DB0F002B00D0491C5A
:103E10008B061B0C038007E000BF71098B02012792
:103E2000FF033B43038000BF00BF10E06078012820
:103E30000DD100BF28465022525B10182278D200C4
:103E4000921C01239B02C318D1180E8000BF00BF33
:103E500000BF01956078002830D100BF2A4650216C
:103E6000495B8A182178C900891D01239B02D31858
:103E7000C918084600BF002E09D10388254F3B40D2
:103E8000038003880127FF033B43038014E03E2E99
:103E90000AD200BF7108F307DB0F002B00D0491CCA
:103EA0008B061B0C038007E000BF71098B02012702
:103EB000FF033B43038000BF00BF12E0607801288E
:103EC0000FD15020415B0198081801902078C00064
:103ED000801D0122920201998918401800900098D3
:103EE000068000BF00BF00BF21788900695A0B4AD5
:103EF0001140084601210903484049004840890013
:103F000001438022114322789200A95200BF002071
:103F1000FEBD0000FF8300008F8F00008FBF0000F8
:103F20000146044A4020405A104340235852002082
:103F30007047000080BF000010B50248FCF7F8FB96
:103F400010BD00002804002001464422505A70474A
:103F5000FFB582B004465E080196009403980126DE
:103F6000B602009CA6199519019F07E02988AD1C8F
:103F70000170401C0E0A0670401C7F1E002FF5D1F8
:103F8000DE07F60F002E01D02988017006B0F0BDC3
:103F90000246002902D180234C2083520020704722
:103FA000FFB582B00446059E761C76080196009403
:103FB00003980126B602009CA6199719019B08E0F8
:103FC0000578401C0678310229433980BF1C401C0B
:103FD0005B1E002BF4D106B0F0BD000001460120AD
:103FE000024A107010460078704700000800002058
:103FF00010B50346012010BD10B50446002010BDC9
:1040000001460120024A10701046007870470000F7
:104010000800002010B50446002010BD30B47446DE
:10402000641E2578641CAB4204D3635D5B00E31817
:1040300030BC18471D46F8E702E008C8121F08C147
:10404000002AFAD170477047002001E001C1121F19
:10405000002AFBD170470000FCF74AF9FDF7A6FEE5
:10406000FDF78CFAFDF786FBFDF7D6FBFDF778FA36
:10407000FDF74EFCFDF77CFB0348FCF7DDF801E0A3
:10408000FDF777FBFCE7000000000020AC400008D3
:10409000000000208C010000880100089441000805
:1040A0008C010020340B00004840000881320113CD
:1040B000DD3F140801401B08F9081A15081AF10819
:1040C0008113AD211B08F5041305221B0831041AC6
:1040D00071041A79101ABD041312013202164083BA
:1040E000042B571D020102034D071C040309041A87
:1040F00003922013E5251B086D048B2926701A5D99
:104100001001101AC5141AB5041AD5041AA50414FE
:104110000902221301011DE0320904C11403010246
:1041200015092111011401224A16070581030422F1
:104130000A091F240A21072429486912314B0A065B
:10414000F019E711100A05010902A1010901A110E6
:104150000805091901290315180F25019503750193
:104160008102950175058101202817300931093830
:104170001581257F750895038106C0093C05FF0957
:104180000129200E75019502B12275069501B10134
:04419000C00000006B
:04000005080000C12E
:00000001FF
